{
  "contractName": "FPIS",
  "abi": [
    {
      "inputs": [],
      "payable": false,
      "stateMutability": "nonpayable",
      "type": "constructor"
    },
    {
      "constant": true,
      "inputs": [],
      "name": "productCount",
      "outputs": [
        {
          "internalType": "uint256",
          "name": "",
          "type": "uint256"
        }
      ],
      "payable": false,
      "stateMutability": "view",
      "type": "function"
    },
    {
      "constant": true,
      "inputs": [
        {
          "internalType": "uint256",
          "name": "",
          "type": "uint256"
        }
      ],
      "name": "products",
      "outputs": [
        {
          "internalType": "uint256",
          "name": "id",
          "type": "uint256"
        },
        {
          "internalType": "string",
          "name": "prod_name",
          "type": "string"
        },
        {
          "internalType": "string",
          "name": "prod_desc",
          "type": "string"
        },
        {
          "internalType": "uint256",
          "name": "prod_code",
          "type": "uint256"
        }
      ],
      "payable": false,
      "stateMutability": "view",
      "type": "function"
    },
    {
      "constant": false,
      "inputs": [
        {
          "internalType": "string",
          "name": "_prodName",
          "type": "string"
        },
        {
          "internalType": "string",
          "name": "_prodDesc",
          "type": "string"
        },
        {
          "internalType": "uint256",
          "name": "_prodCode",
          "type": "uint256"
        }
      ],
      "name": "createProduct",
      "outputs": [],
      "payable": false,
      "stateMutability": "nonpayable",
      "type": "function"
    }
  ],
  "bytecode": "0x60806040526000805534801561001457600080fd5b5061006f604051806040016040528060068152602001656950686f6e6560d01b8152506040518060400160405280601081526020016f477265617420536d61727470686f6e6560801b8152506207f47c61007460201b60201c565b610192565b6000805460019081018083556040805160808101825282815260208082018981528284018990526060830188905293865284815291909420845181559151805192936100c8939085019291909101906100f7565b50604082015180516100e49160028401916020909101906100f7565b5060608201518160030155905050505050565b828054600181600116156101000203166002900490600052602060002090601f016020900481019282601f1061013857805160ff1916838001178555610165565b82800160010185558215610165579182015b8281111561016557825182559160200191906001019061014a565b50610171929150610175565b5090565b61018f91905b80821115610171576000815560010161017b565b90565b610531806101a16000396000f3fe608060405234801561001057600080fd5b50600436106100415760003560e01c80637acc0b2014610046578063a14222091461014f578063e0f6ef8714610280575b600080fd5b6100636004803603602081101561005c57600080fd5b503561029a565b604051808581526020018060200180602001848152602001838103835286818151815260200191508051906020019080838360005b838110156100b0578181015183820152602001610098565b50505050905090810190601f1680156100dd5780820380516001836020036101000a031916815260200191505b50838103825285518152855160209182019187019080838360005b838110156101105781810151838201526020016100f8565b50505050905090810190601f16801561013d5780820380516001836020036101000a031916815260200191505b50965050505050505060405180910390f35b61027e6004803603606081101561016557600080fd5b81019060208101813564010000000081111561018057600080fd5b82018360208201111561019257600080fd5b803590602001918460018302840111640100000000831117156101b457600080fd5b91908080601f016020809104026020016040519081016040528093929190818152602001838380828437600092019190915250929594936020810193503591505064010000000081111561020757600080fd5b82018360208201111561021957600080fd5b8035906020019184600183028401116401000000008311171561023b57600080fd5b91908080601f01602080910402602001604051908101604052809392919081815260200183838082843760009201919091525092955050913592506103d8915050565b005b61028861045b565b60408051918252519081900360200190f35b600160208181526000928352604092839020805481840180548651600296821615610100026000190190911695909504601f810185900485028601850190965285855290949193929091908301828280156103365780601f1061030b57610100808354040283529160200191610336565b820191906000526020600020905b81548152906001019060200180831161031957829003601f168201915b50505060028085018054604080516020601f60001961010060018716150201909416959095049283018590048502810185019091528181529596959450909250908301828280156103c85780601f1061039d576101008083540402835291602001916103c8565b820191906000526020600020905b8154815290600101906020018083116103ab57829003601f168201915b5050505050908060030154905084565b60008054600190810180835560408051608081018252828152602080820189815282840189905260608301889052938652848152919094208451815591518051929361042c93908501929190910190610461565b5060408201518051610448916002840191602090910190610461565b5060608201518160030155905050505050565b60005481565b828054600181600116156101000203166002900490600052602060002090601f016020900481019282601f106104a257805160ff19168380011785556104cf565b828001600101855582156104cf579182015b828111156104cf5782518255916020019190600101906104b4565b506104db9291506104df565b5090565b6104f991905b808211156104db57600081556001016104e5565b9056fea265627a7a723158203d7994a355b4cfe6894157c11fb0c00e9bd7e0edd0f62168bf02448e3c756aaf64736f6c63430005100032",
  "source": "// SPDX-License-Identifier: MIT\r\npragma solidity >=0.4.22 <0.9.0;\r\n\r\ncontract FPIS {\r\n    uint public productCount = 0;\r\n\r\n    struct Product {\r\n        uint id;\r\n        string prod_name;\r\n        string prod_desc;\r\n        uint prod_code;\r\n    }\r\n\r\n    constructor() public {\r\n        createProduct(\"iPhone\", \"Great Smartphone\", 521340);\r\n    }\r\n    \r\n\r\n    mapping(uint => Product) public products;\r\n\r\n    function createProduct(string memory _prodName, string memory _prodDesc, uint _prodCode) public {\r\n        productCount ++;\r\n        products[productCount] = Product(productCount, _prodName, _prodDesc, _prodCode);\r\n    }\r\n\r\n\r\n}",
  "sourcePath": "C:\\Users\\Gnani\\Desktop\\Blockchain Project\\back_end\\contracts\\FakeProductSystem.sol",
  "compiler": {
    "name": "solc",
    "version": "0.5.16+commit.9c3226ce.Emscripten.clang"
  },
  "schemaVersion": "3.4.6",
  "updatedAt": "2022-04-11T16:41:11.345Z",
  "networkType": "ethereum",
  "devdoc": {
    "methods": {}
  },
  "userdoc": {
    "methods": {}
  }
}