{
  "contractName": "FPIS",
  "abi": [
    {
      "inputs": [],
      "payable": false,
      "stateMutability": "nonpayable",
      "type": "constructor"
    },
    {
      "anonymous": false,
      "inputs": [
        {
          "indexed": false,
          "internalType": "uint256",
          "name": "id",
          "type": "uint256"
        },
        {
          "indexed": false,
          "internalType": "string",
          "name": "prod_name",
          "type": "string"
        },
        {
          "indexed": false,
          "internalType": "string",
          "name": "prod_desc",
          "type": "string"
        },
        {
          "indexed": false,
          "internalType": "uint256",
          "name": "prod_code",
          "type": "uint256"
        }
      ],
      "name": "ProductCreated",
      "type": "event"
    },
    {
      "constant": true,
      "inputs": [],
      "name": "productCount",
      "outputs": [
        {
          "internalType": "uint256",
          "name": "",
          "type": "uint256"
        }
      ],
      "payable": false,
      "stateMutability": "view",
      "type": "function"
    },
    {
      "constant": true,
      "inputs": [
        {
          "internalType": "uint256",
          "name": "",
          "type": "uint256"
        }
      ],
      "name": "products",
      "outputs": [
        {
          "internalType": "string",
          "name": "prod_name",
          "type": "string"
        },
        {
          "internalType": "string",
          "name": "prod_desc",
          "type": "string"
        },
        {
          "internalType": "uint256",
          "name": "prod_code",
          "type": "uint256"
        }
      ],
      "payable": false,
      "stateMutability": "view",
      "type": "function"
    },
    {
      "constant": false,
      "inputs": [
        {
          "internalType": "string",
          "name": "_prodName",
          "type": "string"
        },
        {
          "internalType": "string",
          "name": "_prodDesc",
          "type": "string"
        },
        {
          "internalType": "uint256",
          "name": "_prodCode",
          "type": "uint256"
        }
      ],
      "name": "createProduct",
      "outputs": [],
      "payable": false,
      "stateMutability": "nonpayable",
      "type": "function"
    }
  ],
  "bytecode": "0x60806040526000805534801561001457600080fd5b5061006f604051806040016040528060068152602001656950686f6e6560d01b8152506040518060400160405280601081526020016f477265617420536d61727470686f6e6560801b8152506207f47c61007460201b60201c565b610292565b60008054600190810180835560408051606081018252878152602080820188905281830187905292855292825290922081518051929391926100b992849201906101f7565b5060208281015180516100d292600185019201906101f7565b50604082015181600201559050507fdc0293f45084abb7ce038fc35b8dae40e71d5b4f9ab40cab90bf1ea6032935f7600054848484604051808581526020018060200180602001848152602001838103835286818151815260200191508051906020019080838360005b8381101561015457818101518382015260200161013c565b50505050905090810190601f1680156101815780820380516001836020036101000a031916815260200191505b50838103825285518152855160209182019187019080838360005b838110156101b457818101518382015260200161019c565b50505050905090810190601f1680156101e15780820380516001836020036101000a031916815260200191505b50965050505050505060405180910390a1505050565b828054600181600116156101000203166002900490600052602060002090601f016020900481019282601f1061023857805160ff1916838001178555610265565b82800160010185558215610265579182015b8281111561026557825182559160200191906001019061024a565b50610271929150610275565b5090565b61028f91905b80821115610271576000815560010161027b565b90565b61062c806102a16000396000f3fe608060405234801561001057600080fd5b50600436106100415760003560e01c80637acc0b2014610046578063a142220914610148578063e0f6ef8714610279575b600080fd5b6100636004803603602081101561005c57600080fd5b5035610293565b604051808060200180602001848152602001838103835286818151815260200191508051906020019080838360005b838110156100aa578181015183820152602001610092565b50505050905090810190601f1680156100d75780820380516001836020036101000a031916815260200191505b50838103825285518152855160209182019187019080838360005b8381101561010a5781810151838201526020016100f2565b50505050905090810190601f1680156101375780820380516001836020036101000a031916815260200191505b509550505050505060405180910390f35b6102776004803603606081101561015e57600080fd5b81019060208101813564010000000081111561017957600080fd5b82018360208201111561018b57600080fd5b803590602001918460018302840111640100000000831117156101ad57600080fd5b91908080601f016020809104026020016040519081016040528093929190818152602001838380828437600092019190915250929594936020810193503591505064010000000081111561020057600080fd5b82018360208201111561021257600080fd5b8035906020019184600183028401116401000000008311171561023457600080fd5b91908080601f01602080910402602001604051908101604052809392919081815260200183838082843760009201919091525092955050913592506103d3915050565b005b610281610556565b60408051918252519081900360200190f35b60016020818152600092835260409283902080548451600294821615610100026000190190911693909304601f81018390048302840183019094528383529283918301828280156103255780601f106102fa57610100808354040283529160200191610325565b820191906000526020600020905b81548152906001019060200180831161030857829003601f168201915b505050505090806001018054600181600116156101000203166002900480601f0160208091040260200160405190810160405280929190818152602001828054600181600116156101000203166002900480156103c35780601f10610398576101008083540402835291602001916103c3565b820191906000526020600020905b8154815290600101906020018083116103a657829003601f168201915b5050505050908060020154905083565b6000805460019081018083556040805160608101825287815260208082018890528183018790529285529282529092208151805192939192610418928492019061055c565b506020828101518051610431926001850192019061055c565b50604082015181600201559050507fdc0293f45084abb7ce038fc35b8dae40e71d5b4f9ab40cab90bf1ea6032935f7600054848484604051808581526020018060200180602001848152602001838103835286818151815260200191508051906020019080838360005b838110156104b357818101518382015260200161049b565b50505050905090810190601f1680156104e05780820380516001836020036101000a031916815260200191505b50838103825285518152855160209182019187019080838360005b838110156105135781810151838201526020016104fb565b50505050905090810190601f1680156105405780820380516001836020036101000a031916815260200191505b50965050505050505060405180910390a1505050565b60005481565b828054600181600116156101000203166002900490600052602060002090601f016020900481019282601f1061059d57805160ff19168380011785556105ca565b828001600101855582156105ca579182015b828111156105ca5782518255916020019190600101906105af565b506105d69291506105da565b5090565b6105f491905b808211156105d657600081556001016105e0565b9056fea265627a7a72315820c8fe830db2c28dddafe55dc5cdbdb47dadba97b3d88031ac8c0bb3348d148e0264736f6c63430005100032",
  "source": "// SPDX-License-Identifier: MIT\r\npragma solidity >=0.4.22 <0.9.0;\r\n\r\ncontract FPIS {\r\n\r\n    //Product Count \r\n    uint public productCount = 0;\r\n\r\n    //Product Structure\r\n    struct Product {\r\n        string prod_name;\r\n        string prod_desc;\r\n        uint prod_code;\r\n    }\r\n\r\n    //Variable for Products\r\n    mapping(uint => Product) public products;\r\n\r\n    //constructor for Initializing Products\r\n    constructor() public {\r\n\r\n        createProduct(\"iPhone\", \"Great Smartphone\", 521340);\r\n    }\r\n\r\n    //Event for Product Creation\r\n    event ProductCreated(\r\n        uint id,\r\n        string prod_name,\r\n        string prod_desc,\r\n        uint prod_code\r\n    );\r\n\r\n\r\n    //function to Create a Product in Block\r\n    function createProduct(string memory _prodName, string memory _prodDesc, uint _prodCode) public {\r\n        productCount ++;\r\n        products[productCount] = Product( _prodName, _prodDesc, _prodCode);\r\n        //Calling Event\r\n        emit ProductCreated(productCount, _prodName, _prodDesc, _prodCode);\r\n    }\r\n    \r\n}",
  "sourcePath": "C:\\Users\\Gnani\\Desktop\\FPIS Project\\FPIS\\back_end\\contracts\\FakeProductSystem.sol",
  "compiler": {
    "name": "solc",
    "version": "0.5.16+commit.9c3226ce.Emscripten.clang"
  },
  "schemaVersion": "3.4.6",
  "updatedAt": "2022-04-27T14:25:07.894Z",
  "networkType": "ethereum",
  "devdoc": {
    "methods": {}
  },
  "userdoc": {
    "methods": {}
  }
}